{
  "contractName": "BridgePol",
  "abi": [
    {
      "inputs": [
        {
          "internalType": "address",
          "name": "token",
          "type": "address"
        }
      ],
      "stateMutability": "nonpayable",
      "type": "constructor"
    },
    {
      "anonymous": false,
      "inputs": [
        {
          "indexed": false,
          "internalType": "address",
          "name": "userAddress",
          "type": "address"
        },
        {
          "indexed": false,
          "internalType": "uint256",
          "name": "amount",
          "type": "uint256"
        },
        {
          "indexed": false,
          "internalType": "uint256",
          "name": "date",
          "type": "uint256"
        },
        {
          "indexed": false,
          "internalType": "uint256",
          "name": "nonce",
          "type": "uint256"
        },
        {
          "indexed": false,
          "internalType": "bytes",
          "name": "signature",
          "type": "bytes"
        }
      ],
      "name": "Transfer",
      "type": "event"
    },
    {
      "inputs": [],
      "name": "bridgeAdmin",
      "outputs": [
        {
          "internalType": "address",
          "name": "",
          "type": "address"
        }
      ],
      "stateMutability": "view",
      "type": "function",
      "constant": true
    },
    {
      "inputs": [
        {
          "internalType": "uint256",
          "name": "amount",
          "type": "uint256"
        },
        {
          "internalType": "uint256",
          "name": "nonce",
          "type": "uint256"
        },
        {
          "internalType": "bytes",
          "name": "signature",
          "type": "bytes"
        }
      ],
      "name": "burn",
      "outputs": [],
      "stateMutability": "nonpayable",
      "type": "function"
    },
    {
      "inputs": [
        {
          "internalType": "address",
          "name": "admin",
          "type": "address"
        },
        {
          "internalType": "address",
          "name": "userAddress",
          "type": "address"
        },
        {
          "internalType": "uint256",
          "name": "amount",
          "type": "uint256"
        },
        {
          "internalType": "uint256",
          "name": "newAmount",
          "type": "uint256"
        },
        {
          "internalType": "uint256",
          "name": "nonce",
          "type": "uint256"
        },
        {
          "internalType": "bytes",
          "name": "signature",
          "type": "bytes"
        }
      ],
      "name": "mint",
      "outputs": [],
      "stateMutability": "nonpayable",
      "type": "function"
    },
    {
      "inputs": [
        {
          "internalType": "address",
          "name": "",
          "type": "address"
        },
        {
          "internalType": "uint256",
          "name": "",
          "type": "uint256"
        }
      ],
      "name": "processedNonces",
      "outputs": [
        {
          "internalType": "bool",
          "name": "",
          "type": "bool"
        }
      ],
      "stateMutability": "view",
      "type": "function",
      "constant": true
    },
    {
      "inputs": [],
      "name": "token",
      "outputs": [
        {
          "internalType": "contract IToken",
          "name": "",
          "type": "address"
        }
      ],
      "stateMutability": "view",
      "type": "function",
      "constant": true
    }
  ],
  "bytecode": "0x608060405234801561001057600080fd5b50604051610f6b380380610f6b8339818101604052810190610032919061011e565b80336000806101000a81548173ffffffffffffffffffffffffffffffffffffffff021916908373ffffffffffffffffffffffffffffffffffffffff16021790555080600160006101000a81548173ffffffffffffffffffffffffffffffffffffffff021916908373ffffffffffffffffffffffffffffffffffffffff160217905550505061014b565b600080fd5b600073ffffffffffffffffffffffffffffffffffffffff82169050919050565b60006100eb826100c0565b9050919050565b6100fb816100e0565b811461010657600080fd5b50565b600081519050610118816100f2565b92915050565b600060208284031215610134576101336100bb565b5b600061014284828501610109565b91505092915050565b610e118061015a6000396000f3fe608060405234801561001057600080fd5b50600436106100575760003560e01c80637cc702401461005c57806380a5a3711461008c578063a6af2dfe146100a8578063d79c2f7a146100c6578063fc0c546a146100e2575b600080fd5b61007660048036038101906100719190610769565b610100565b60405161008391906107c4565b60405180910390f35b6100a660048036038101906100a19190610844565b61012f565b005b6100b0610311565b6040516100bd91906108c7565b60405180910390f35b6100e060048036038101906100db91906108e2565b610335565b005b6100ea6105ed565b6040516100f791906109f0565b60405180910390f35b60026020528160005260406000206020528060005260406000206000915091509054906101000a900460ff1681565b60001515600260003373ffffffffffffffffffffffffffffffffffffffff1673ffffffffffffffffffffffffffffffffffffffff168152602001908152602001600020600085815260200190815260200160002060009054906101000a900460ff161515146101d3576040517f08c379a00000000000000000000000000000000000000000000000000000000081526004016101ca90610a8e565b60405180910390fd5b6001600260003373ffffffffffffffffffffffffffffffffffffffff1673ffffffffffffffffffffffffffffffffffffffff168152602001908152602001600020600085815260200190815260200160002060006101000a81548160ff021916908315150217905550600160009054906101000a900473ffffffffffffffffffffffffffffffffffffffff1673ffffffffffffffffffffffffffffffffffffffff16639dc29fac33866040518363ffffffff1660e01b8152600401610299929190610abd565b600060405180830381600087803b1580156102b357600080fd5b505af11580156102c7573d6000803e3d6000fd5b505050507e1185270fc574dedac1ed8a6cc59417675471f8b4f0dd55c0b52d8256af7fe333854286868660405161030396959493929190610b44565b60405180910390a150505050565b60008054906101000a900473ffffffffffffffffffffffffffffffffffffffff1681565b60008787878660405160200161034e9493929190610c09565b604051602081830303815290604052805190602001206040516020016103749190610cd9565b6040516020818303038152906040528051906020012090508773ffffffffffffffffffffffffffffffffffffffff166103f18285858080601f016020809104026020016040519081016040528093929190818152602001838380828437600081840152601f19601f82011690508083019250505050505050610613565b73ffffffffffffffffffffffffffffffffffffffff1614610447576040517f08c379a000000000000000000000000000000000000000000000000000000000815260040161043e90610d4b565b60405180910390fd5b60001515600260008a73ffffffffffffffffffffffffffffffffffffffff1673ffffffffffffffffffffffffffffffffffffffff168152602001908152602001600020600086815260200190815260200160002060009054906101000a900460ff161515146104eb576040517f08c379a00000000000000000000000000000000000000000000000000000000081526004016104e290610a8e565b60405180910390fd5b6001600260008a73ffffffffffffffffffffffffffffffffffffffff1673ffffffffffffffffffffffffffffffffffffffff168152602001908152602001600020600086815260200190815260200160002060006101000a81548160ff021916908315150217905550600160009054906101000a900473ffffffffffffffffffffffffffffffffffffffff1673ffffffffffffffffffffffffffffffffffffffff166340c10f1988876040518363ffffffff1660e01b81526004016105b1929190610abd565b600060405180830381600087803b1580156105cb57600080fd5b505af11580156105df573d6000803e3d6000fd5b505050505050505050505050565b600160009054906101000a900473ffffffffffffffffffffffffffffffffffffffff1681565b60008060008061062285610688565b809350819450829550505050600186848484604051600081526020016040526040516106519493929190610d96565b6020604051602081039080840390855afa158015610673573d6000803e3d6000fd5b50505060206040510351935050505092915050565b6000806000604184511461069b57600080fd5b60008060006020870151925060408701519150606087015160001a90508083839550955095505050509193909250565b600080fd5b600080fd5b600073ffffffffffffffffffffffffffffffffffffffff82169050919050565b6000610700826106d5565b9050919050565b610710816106f5565b811461071b57600080fd5b50565b60008135905061072d81610707565b92915050565b6000819050919050565b61074681610733565b811461075157600080fd5b50565b6000813590506107638161073d565b92915050565b600080604083850312156107805761077f6106cb565b5b600061078e8582860161071e565b925050602061079f85828601610754565b9150509250929050565b60008115159050919050565b6107be816107a9565b82525050565b60006020820190506107d960008301846107b5565b92915050565b600080fd5b600080fd5b600080fd5b60008083601f840112610804576108036107df565b5b8235905067ffffffffffffffff811115610821576108206107e4565b5b60208301915083600182028301111561083d5761083c6107e9565b5b9250929050565b6000806000806060858703121561085e5761085d6106cb565b5b600061086c87828801610754565b945050602061087d87828801610754565b935050604085013567ffffffffffffffff81111561089e5761089d6106d0565b5b6108aa878288016107ee565b925092505092959194509250565b6108c1816106f5565b82525050565b60006020820190506108dc60008301846108b8565b92915050565b600080600080600080600060c0888a031215610901576109006106cb565b5b600061090f8a828b0161071e565b97505060206109208a828b0161071e565b96505060406109318a828b01610754565b95505060606109428a828b01610754565b94505060806109538a828b01610754565b93505060a088013567ffffffffffffffff811115610974576109736106d0565b5b6109808a828b016107ee565b925092505092959891949750929550565b6000819050919050565b60006109b66109b16109ac846106d5565b610991565b6106d5565b9050919050565b60006109c88261099b565b9050919050565b60006109da826109bd565b9050919050565b6109ea816109cf565b82525050565b6000602082019050610a0560008301846109e1565b92915050565b600082825260208201905092915050565b7f546865207472616e73616374696f6e2068617320616c7265616479206265656e60008201527f2070726f63657373656400000000000000000000000000000000000000000000602082015250565b6000610a78602a83610a0b565b9150610a8382610a1c565b604082019050919050565b60006020820190508181036000830152610aa781610a6b565b9050919050565b610ab781610733565b82525050565b6000604082019050610ad260008301856108b8565b610adf6020830184610aae565b9392505050565b600082825260208201905092915050565b82818337600083830152505050565b6000601f19601f8301169050919050565b6000610b238385610ae6565b9350610b30838584610af7565b610b3983610b06565b840190509392505050565b600060a082019050610b5960008301896108b8565b610b666020830188610aae565b610b736040830187610aae565b610b806060830186610aae565b8181036080830152610b93818486610b17565b9050979650505050505050565b60008160601b9050919050565b6000610bb882610ba0565b9050919050565b6000610bca82610bad565b9050919050565b610be2610bdd826106f5565b610bbf565b82525050565b6000819050919050565b610c03610bfe82610733565b610be8565b82525050565b6000610c158287610bd1565b601482019150610c258286610bd1565b601482019150610c358285610bf2565b602082019150610c458284610bf2565b60208201915081905095945050505050565b600081905092915050565b7f19457468657265756d205369676e6564204d6573736167653a0a333200000000600082015250565b6000610c98601c83610c57565b9150610ca382610c62565b601c82019050919050565b6000819050919050565b6000819050919050565b610cd3610cce82610cae565b610cb8565b82525050565b6000610ce482610c8b565b9150610cf08284610cc2565b60208201915081905092915050565b7f546865207369676e6174757265206973206e6f742076616c6964000000000000600082015250565b6000610d35601a83610a0b565b9150610d4082610cff565b602082019050919050565b60006020820190508181036000830152610d6481610d28565b9050919050565b610d7481610cae565b82525050565b600060ff82169050919050565b610d9081610d7a565b82525050565b6000608082019050610dab6000830187610d6b565b610db86020830186610d87565b610dc56040830185610d6b565b610dd26060830184610d6b565b9594505050505056fea2646970667358221220d4ab7ff5dc245d78122644b1bdac65af5b0d9320fe25eb45d0e4cf2b9781c2f964736f6c634300080d0033",
  "immutableReferences": {},
  "source": "// SPDX-License-Identifier: MIT\r\n\r\npragma solidity ^0.8.0;\r\n\r\nimport \"./Bridge.sol\";\r\n\r\ncontract BridgePol is Bridge {\r\n    constructor(address token) Bridge(token) {}\r\n}\r\n",
  "sourcePath": "D:\\development\\tfm-bridge\\contracts\\BridgePol.sol",
  "compiler": {
    "name": "solc",
    "version": "0.8.13+commit.abaa5c0e.Emscripten.clang"
  },
  "schemaVersion": "3.4.14",
  "updatedAt": "2023-06-27T20:27:15.162Z",
  "networkType": "ethereum",
  "devdoc": {
    "kind": "dev",
    "methods": {},
    "version": 1
  },
  "userdoc": {
    "kind": "user",
    "methods": {},
    "version": 1
  }
}